:0400000042EF00F0DB
:1000080000C015F0F0A00DD0164A172A000E006E99
:100018001750005C02E116500008D8A08B80F090C1
:1000280014D0F0A212D0000E175C02E1000E165C8C
:1000380004E3010E165E000E175A000E171802E1AF
:10004800000E1618D8B48B90F09215C000F011006D
:100058000900F5CFE6FF0006FBE10106F9E1120011
:10006800166A176A060E936E816A94908B90070E33
:0C007800C16EF28EF28CF086F08812004F
:06008400F1DFFFD7FFD7FA
:020000040030CA
:0E000000000C1F1EFF8381FF0FC00FE00F409A
:00000001FF
